:040000005DEF00F0C0
:060008003D827AED05F0D7
:100018003D80D8CF14F0E8CF15F0E0CF16F0FACF36
:1000280017F0FBCF18F0E9CF19F0EACF1AF0E1CFBB
:100038001BF0E2CF1CF0D9CF1DF0DACF1EF0F3CFC2
:100048001FF0F4CF20F0F6CF21F0F7CF22F0F8CF51
:1000580023F0F5CF24F0F2B4F2AA07D0E80ED76E59
:100068008F0ED66EF2941FEC04F024C0F5FF23C067
:10007800F8FF22C0F7FF21C0F6FF20C0F4FF1FC021
:10008800F3FF1EC0DAFF1DC0D9FF1CC0E2FF1BC072
:10009800E1FF1AC0EAFF19C0E9FF18C0FBFF17C04B
:1000A800FAFF16C0E0FF15C0E8FF14C0D8FF3D9066
:0600B800100039EF06F014
:10080000000A0D53756365737320696E6974206403
:1008100065766963652121000A0D4B65657020418D
:100820006C697665202E2E2E000A0D4C4544204F13
:0D0830004646000A0D4C4544204F4E000086
:10083E00252808E12628D8A405D0000E266E000E25
:10084E00256E02D0254A262A25C00FF026C010F0AC
:10085E00000E126E0A0E116EE9EC05F00F5010101C
:10086E00D8A40CD0272808E12828D8A405D0000E3B
:10087E00286E000E276E02D0274A282A25C00FF0B8
:10088E0026C010F0000E126E640E116EE9EC05F02B
:10089E000F501010D8A40CD0292808E12A28D8A46B
:1008AE0005D0000E2A6E000E296E02D0294A2A2A81
:1008BE0025C00FF026C010F0030E126EE80E116E5A
:1008CE00E9EC05F00F501010D8A40CD02B2808E13D
:1008DE002C28D8A405D0000E2C6E000E2B6E02D044
:1008EE002B4A2C2A2BC00FF02CC010F0000E126ECB
:1008FE003C0E116EE9EC05F00F501010D8A412004A
:10090E002D2808E12E28D8A405D0000E2E6E000E3C
:10091E002D6E12002D4A2E2A120000016251000186
:10092E006311D8A406D0000E0001616F000E606F37
:10093E00120065C0D9FF66C0DAFF00016051DE5CAF
:10094E0000016151DE58D8A01AD065C0D9FF66C02B
:10095E00DAFFDECF67F0DDCF68F060C069F061C00E
:10096E006AF00001691F6A1F694B6A2B000167510B
:10097E000001692500016B6F000168511FD065C031
:10098E00D9FF66C0DAFFDECF67F0DDCF68F060C05A
:10099E0069F061C06AF00001691F6A1F694B6A2B1A
:1009AE0000016751000169270001685100016A23A7
:1009BE00FF0E0001692500016B6FFF0E00016A2119
:1009CE0000016C6F6BC060F06CC061F012003A50A9
:1009DE00D8A438D0360E0001606F000E0001616F92
:1009EE00000E0001636F050E626F290E0001646F29
:1009FE00000E0001656F3AEC05F081AA02D0010EDF
:100A0E0001D0000EFF0A0001746F0001743B7447A1
:100A1E00815000017419DF0B7419816E81AA09D0FF
:100A2E00330E0001616F080E0001626F23EC06F0B9
:100A3E001200290E0001616F080E0001626F23EC97
:100A4E0006F0120020EE36F000EE6DF0060EDBCF53
:100A5E00EBFFE806FCE20AEC06F00009D8A412004F
:100A6E00000E3A6E1200000120EE02F06051D926FF
:100A7E006151DA2262C0DEFF63C0DDFF000120EEAD
:100A8E0004F06051D9266151DA220001622904E195
:100A9E0000016329D8B402D0010E01D0000EDF6E22
:100AAE00000120EE05F06051D9266151DA2264C0B2
:100ABE00DEFF65C0DDFF000120EE05F06051D92696
:100ACE006151DA22DECF66F0DDCF67F066C0D9FF66
:100ADE0067C0DAFF60C0E1FF61C0E2FFDECFE6FF74
:100AEE00DDCFE5FF12000600FACF01F0FBCF02F0DA
:100AFE00E9CF03F0EACF04F0E1CF05F0E2CF06F044
:100B0E00D9CF07F0DACF08F0F3CF09F0F4CF0AF01F
:100B1E00F6CF0BF0F7CF0CF0F8CF0DF0F5CF0EF0BF
:100B2E009DB09EA001D09E900EC0F5FF0DC0F8FFA7
:100B3E000CC0F7FF0BC0F6FF0AC0F4FF09C0F3FFAD
:100B4E0008C0DAFF07C0D9FF06C0E2FF05C0E1FF0B
:100B5E0004C0EAFF03C0E9FF02C0FBFF01C0FAFFB9
:100B6E003D9211003350D8A41CD02F0E0001606F9F
:100B7E00000E0001616F000E0001636F0A0E626FBE
:100B8E002B0E0001646F000E0001656F3AEC05F04C
:100B9E00180E0001616F080E0001626F23EC06F063
:100BAE00120020EE2FF000EE6DF0060EDBCFEBFF05
:100BBE00E806FCE20AEC06F00009D8A41200000ECA
:100BCE00336E120011501210D8B418D0010E136EDD
:100BDE0004D0D89011361236132A12AEFAD711500D
:100BEE000F5C12501058D8A004D011500F5E125046
:100BFE00105AD89012321132132EF1D70FC00FF0B7
:100C0E0010C010F0120020EE6DF000EE60F0060E37
:100C1E00DBCFEBFFE806FCE294EC04F000016F5131
:100C2E000001605D0001705100016159D8A002D031
:100C3E00000E1200010E12000BD061C0F6FF62C052
:100C4E00F7FF0800F5507DEC06F00001614B622BBA
:100C5E0061C0F6FF62C0F7FF0800F5500009D8B476
:100C6E001200EBD700EE25F0180EEE6AE806FDE155
:100C7E003D903D92000EF86E080EF76E000148EFA3
:100C8E0006F072EC06F0010E0001616F080E000115
:100C9E00626F23EC06F0EEEC04F0B9EC05F0FBD736
:100CAE00010ECD6E9D90F28CD08E9F80F28E9E9016
:100CBE00000ED56EF28AF194D58E1200949C948E0D
:100CCE00080EB86E000EB06E190EAF6E900EAB6EB3
:100CDE00200EAC6E1200939A819A93988198938607
:100CEE00939665EC06F057EC06F012000001606F6B
:0A0CFE00ACA2FED760C0ADFF1200EB
:020000040020DA
:08000000FFFFFFFFFFFFFFFF00
:020000040030CA
:0E000000040E171EFF8381FF0FC00FE00F409C
:00000001FF
